:020000040000FA
:109C0000751140758191751800743B91B7909D0056
:109C1000E4F51893B4FF0EE491B791D6B45009C29D
:109C200000915980F5029DE2B41204914F80EBB48B
:109C3000300F9147749091B7E51891B7751800806F
:109C4000D9B4E5D6029DE27E007FFF1201D02291B9
:109C5000D6F891D688B4F5B422E4F510F50FF50DD9
:109C6000F50E91A4F59391A4F58391A4F582851145
:109C70001275C9049196250EF50E5002050DD512E8
:109C8000F3E50E91B091B7E50D91B091B7E5109164
:109C9000B7E50F91B72291A4F04380023080FDC256
:109CA00080E0A32291D6FD2510F5105002050FED9E
:109CB0003000031201FA22C007FFC0078507993060
:109CC00099FDC299E5B230E308D00753B2F7029C80
:0E9CD000BAD007D007223098FDE599C298223D
:109D00001201FC7F011201F6EFB400031201F812F8
:109D1000A290129CD6B4FF17129CD6F515129CD6B1
:109D2000F516129CD6F517AF1612A1CB129CD6B41D
:109D3000E503029DE2B4502F7F011201F6EFB4015A
:109D40001F851112129CD6129CD6129CD6129CD63C
:109D5000D511FAE4129CB7129CB7129CB7129CB7AB
:109D6000C200129C5980C5B46004D200A162B465DF
:109D70002779107874129CD6F608D9F97F01120160
:109D8000F6EFB4FF0C7F017D741201F41201F8802C
:109D90002E746A7518528029B41205129C4F808C5B
:109DA000B4550BE4FFFD7BFF1201DE029D2CB45184
:109DB00008129CD6F511029D2CB43013129C4774E6
:109DC00090129CB7E518129CB7751800029D2C12D2
:109DD0009CD6129CD6129CD6129CD6E4F518746EB2
:109DE000A1C178147F0412A2FBE514B4A00874008A
:109DF000C0E0C2008003029E9F7F011201F6D0E006
:109E0000B5070A85171215121512029E5CE4F50AB1
:109E1000F50BF50FF510F50C851712151215121527
:109E200012E515129CA6F583E516129CA6F582751F
:109E3000C904E514129CB7129CD6129CA6F5931285
:109E40009C9630850ED512F7803E746A751880C0D6
:109E5000E08029746AC0E0751881800EE514129CB8
:109E6000B7746AC0E075188480021512E5126006A6
:109E7000129CD6D512F6129CD6129CD67E047F0078
:109E80001201ECD0E0029DC1129CD6F50A129CD6BC
:109E9000F50BE50FB50AB3E510B50BAE029DBFB4E7
:109EA000A60974FFC0E0D200029DF9B4A2028003AB
:109EB000029F35E4F50FF510A817E5152510F510EC
:109EC0005002050FE5162510F5105002050FE51498
:109ED000129CB77974129CD6F72510F51050020524
:109EE0000F18E809B402EE129CD6B50F09129CD6E1
:109EF000B51006029F01129CD6746A751880029DE7
:109F0000C17D74E517B4120E7F011201F4C007126F
:109F100001F8D00780057F001201F4EF7003029D65
:109F2000BFEFB4AA08746A751884029DC1746A757B
:109F30001882029DC1B43003029DBCB43418E514EC
:109F4000129CB77F281201DA79087828E6129CB7AC
:109F500008D9F9029DBFB4A81812A2E1E522B515EF
:109F600008E523B51603029DBF746A751886029D25
:109F7000C1B41217E5157490129CB77400129CB707
:109F8000A815E51688B4F5B4029D2CB4560C7F00D4
:109F90007D00AB151201DE029DBF746B029DC1E70F
:109FA00009F608DFFA8046E709F208DFFA803E8802
:109FB000828C83E709F0A3DFFA8032E309F608DF39
:109FC000FA8078E309F208DFFA807088828C83E3F4
:109FD00009F0A3DFFA806489828A83E0A3F608DFB0
:109FE000FA805889828A83E0A3F208DFFA804C80E5
:109FF000D280FA80C680D4806980F280338010805D
:10A00000A680EA809A80A880DA80E280CA803389BC
:10A01000828A83ECFAE493A3C8C582C8CCC583CCFA
:10A02000F0A3C8C582C8CCC583CCDFE9DEE7800DCC
:10A0300089828A83E493A3F608DFF9ECFAA9F0EDAC
:10A04000FB2289828A83ECFAE0A3C8C582C8CCC50A
:10A0500083CCF0A3C8C582C8CCC583CCDFEADEE8D8
:10A0600080DB89828A83E493A3F208DFF980CC88BD
:10A07000F0EF60010E4E60C388F0ED2402B40400DE
:10A0800050B9F582EB2402B4040050AF232345827B
:10A0900023909FEF73BC000BBE0029EF8DF084FF6F
:10A0A000ADF022E4CCF875F008EF2FFFEE33FEECB4
:10A0B00033FCEE9DEC984005FCEE9DFE0FD5F0E9DB
:10A0C000E4CEFD22EDF8F5F0EE8420D21CFEADF0DA
:10A0D00075F008EF2FFFED33FD4007985006D5F0DF
:10A0E000F222C398FD0FD5F0EA22ED34F6500302B8
:10A0F000A1CA90A104EF75F009A43582500205832E
:10A10000F582E473751D01751E7402A17F751D0132
:10A11000751E7402A17F751D02751E2E02A17F752A
:10A120001D02751EE802A17F751D04751E5C02A14B
:10A130007F751D05751ED002A17F751D07751E4414
:10A1400002A17F751D01751E7402A17F751D017529
:10A150001E7402A17F751D02751E0002A17F751D70
:10A1600003751E0002A17F751D04751E0002A17FEC
:10A17000751D06751E0002A17F751D08751E0090D5
:10A18000A191ED75F006A4358250020583F582E4B5
:10A1900073751F0102A1CA751F0102A1CA751F02B2
:10A1A00002A1CA751F0402A1CA751F0802A1CA75BF
:10A1B0001F1002A1CA751F2002A1CA751F0102A1AA
:10A1C000CA751F0C02A1CA751F1422AE07E4786677
:10A1D000F608F6087601087673EEC4540FFFEE54C5
:10A1E0000FFD12A0EAE51D7F007866F6FE08EFF687
:10A1F000E51EFF18EEF6FE08EFF6FFAD1F7C00121D
:10A20000A095EF24FF7869F6EE34FF18F674FF127C
:10A210009CB7E515129CB7E516129CB7E517129C82
:10A22000B77868E6FC08E6FDECF5B4AF05EFF5B4E9
:10A23000228E268F27E51C151C7002151B1425275E
:10A24000F582E526351BF583E0621AE51AC4F85459
:10A250000FC868FFE51A6FFD7C00FAE519FFEFFBF8
:10A26000ED7E007803C333CE33CED8F9FFEE6AFA21
:10A27000EF6BFBECC4F854F0C868FEEDC4540F4813
:10A28000FFEE6AF519EF6BF51AE51C451B70A62267
:10A29000E47885F608F6087C00FD7BFF7AA3790454
:10A2A000FE7F0B12A06F7F011201F6EF700678910E
:10A2B00076018004E47891F67887E6129CB77B0FEC
:10A2C000E4FDFF1201DE788476017884E6FFC39412
:10A2D0000B500D74872FF8E6129CB778840680EA3D
:10A2E00022E4F519F51A751B97751CFD7E047F0392
:10A2F00012A231851A23E519F52222129CD6F60402
:0FA3000008DFF822989600E500401000630A007D
:00000001FF
