:0300000001002FCD
:04000B000200080BDC
:0400230002000823AC
:10002B000200082B75AE0F1200007D01080075AEA3
:10003B0001803F75AE02803A75AE03803575AE0414
:10004B00803075AE05802B75AE06802675AE0780A9
:10005B002175AE08801C75AE09801775AE0A80122B
:10006B0075AE0B800D75AE0C8008AFB52275AE0E5C
:0C007B008000E5AE70FCAFAF75AF002256
:1001CD0001003901003E01004301004801004D01CD
:1001DD00005201005701005C010061010066010041
:0A01ED006B0100700100750100783D
:100300001122334455667788887766554433221125
:08031000108000800080000055
:00000001FF
