:0300000002002ECD
:03002300020423B1
:10002B0002042B75AE0F12007802040075AE01802E
:10003B003C75AE02803775AE03803275AE04802DF1
:10004B0075AE05802875AE06802375AE07801E75CC
:10005B00AE08801975AE09801475AE0A800F75AEA7
:10006B000B800A75AE0C800575AE0E8000E5AE7088
:07007B00FCAFAF75AF0022DE
:100100001122334455667788887766554433221127
:08011000108000800080000057
:1001CE000137013C01410146014B01500155015AD5
:0801DE00015F01640169016E7B
:00000001FF
