:0300000002002ECD
:03000B0002080BDD
:03002300020823AD
:10002B0002082B75AE0F12007B02080075AE018023
:10003B003F75AE02803A75AE03803575AE048030E5
:10004B0075AE05802B75AE06802675AE07802175C3
:10005B00AE08801C75AE09801775AE0A801275AE9E
:10006B000B800D75AE0C8008AFB52275AE0E8000FF
:0A007B00E5AE70FCAFAF75AF0022D8
:1001CE000137013C01410146014B01500155015AD5
:0A01DE00015F01640169016E017305
:100300001122334455667788887766554433221125
:08031000108000800080000055
:00000001FF
